:100000000C94EA030C9412040C9412040C94120441
:100010000C9412040C9412040C9412040C94120408
:100020000C9412040C9412040C94E70B0C94590CCD
:100030000C9412040C9412040C9412040C941204E8
:100040000C9412040C942D080C9412040C941204B9
:100050000C9412040C9412040C9412040C946D076A
:100060000C9412040C9412040C9412040C941204B8
:100070000C9412040C9412040C9412040C941204A8
:100080000C94CB080C9412040C9412040C941204DB
:100090000C9412040C9412040C9412040C94120488
:1000A0000C9412040C9412040C9412046A046D044F
:1000B0005C04600464048E048E048E047104750470
:1000C00079047F0483048E048904C206C706CC0623
:1000D000D606E0062A072A072A07EA06F406FE06DD
:1000E000080715072A071D0700000000003E5B4FA8
:1000F0005B3E3E6B4F6B3E1C3E7C3E1C183C7E3C88
:10010000181C577D571C1C5E7F5E1C00183C180095
:10011000FFE7C3E7FF0018241800FFE7DBE7FF3025
:10012000483A060E2629792926407F050507407F93
:1001300005253F5A3CE73C5A7F3E1C1C08081C1C06
:100140003E7F14227F22145F5F005F5F06097F01FC
:100150007F006689956A606060606094A2FFA294E7
:1001600008047E040810207E201008082A1C0808B5
:100170001C2A08081E101010100C1E0C1E0C303803
:100180003E3830060E3E0E06000000000000005F04
:1001900000000007000700147F147F14242A7F2A20
:1001A00012231308646236495620500008070300E2
:1001B000001C2241000041221C002A1C7F1C2A082E
:1001C000083E080800807030000808080808000091
:1001D00060600020100804023E5149453E00427F05
:1001E000400072494949462141494D331814127F54
:1001F0001027454545393C4A4949314121110907F4
:100200003649494936464949291E00001400000074
:100210004034000000081422411414141414004146
:1002200022140802015909063E415D594E7C121103
:10023000127C7F494949363E414141227F4141413B
:100240003E7F494949417F090909013E41415173B6
:100250007F0808087F00417F41002040413F017F27
:10026000081422417F404040407F021C027F7F04EF
:1002700008107F3E4141413E7F090909063E415138
:10028000215E7F09192946264949493203017F0128
:10029000033F4040403F1F2040201F3F4038403F29
:1002A000631408146303047804036159494D43003F
:1002B0007F4141410204081020004141417F040276
:1002C000010204404040404000030708002054540D
:1002D00078407F28444438384444442838444428EB
:1002E0007F385454541800087E090218A4A49C783E
:1002F0007F0804047800447D40002040403D007F9A
:100300001028440000417F40007C047804787C0879
:100310000404783844444438FC182424181824244D
:1003200018FC7C08040408485454542404043F4432
:10033000243C4040207C1C2040201C3C4030403C61
:1003400044281028444C9090907C4464544C4400C1
:100350000836410000007700000041360800020125
:100360000204023C2623263C1EA1A161123A404011
:10037000207A38545455592155557941215454788F
:1003800041215554784020545579400C1E52721228
:1003900039555555593954545459395554545800B0
:1003A00000457C410002457D420001457C40F0292A
:1003B0002429F0F0282528F07C5455450020545479
:1003C0007C547C0A097F49324949493232484848BD
:1003D00032324A4848303A4141217A3A4240207804
:1003E000009DA0A07D39444444393D4040403D3CFF
:1003F00024FF2424487E4943662B2FFC2F2BFF0922
:1004000029F620C0887E0903205454794100004415
:100410007D413048484A32384040227A007A0A0A00
:10042000727D0D19317D2629292F28262929292673
:1004300030484D4020380808080808080808382FB8
:1004400010C8ACBA2F102834FA00007B0000081442
:100450002A142222142A14089500220095AA005575
:1004600000AAAA55AA55AA000000FF00101010FF0C
:1004700000141414FF001010FF00FF1010F010F013
:10048000141414FC001414F700FF0000FF00FF1404
:1004900014F404FC141417101F10101F101F141450
:1004A000141F00101010F0000000001F101010109A
:1004B0001F10101010F010000000FF10101010108E
:1004C00010101010FF10000000FF140000FF00FFCC
:1004D00000001F10170000FC04F414141710171468
:1004E00014F404F40000FF00F7141414141414148A
:1004F000F700F7141414171410101F101F141414FD
:10050000F4141010F010F000001F101F0000001F66
:1005100014000000FC140000F010F01010FF10FF99
:10052000141414FF141010101F00000000F010FF2E
:10053000FFFFFFFFF0F0F0F0F0FFFFFF0000000012
:1005400000FFFF0F0F0F0F0F38444438447C2A2A56
:100550003E147E02020606027E027E026355494177
:10056000633844443C04407E201E2006027E020282
:1005700099A5E7A5991C2A492A1C4C7201724C3096
:100580004A4D4D303048784830BC625A463D3E496D
:100590004949007E0101017E2A2A2A2A2A44445F11
:1005A000444440514A444040444A51400000FF0105
:1005B00003E080FF000008086B6B08361236243613
:1005C000060F090F06000018180000001010003078
:1005D00040FF0101001F01011E00191D1712003C00
:1005E0003C3C3C00000000000601150126013701DB
:1005F0004A015D01720188019F01B801D201EE013B
:100600000B022A024B026E029302BA02E4021003AA
:100610003F037003A403DC03170455049704DD04AF
:1006200027057505C80520067D06E0064907B807B9
:100630002D08A9082D09B9094D0AEA0A900B400CAA
:10064000FA0CC00D910E6F0F5A1053115B127213FA
:100650009A14D41520178018F519801B231DDE1E4F
:10066000B420A622B524E4263429A72B402E00313D
:10067000EA330037453ABC3D68414C456B49C84DAB
:1006800068524F57805C006210111213151617182C
:100690001A1C1D1F21232527292C2E3134373A3EC1
:1006A0004145494E52575C62686E757B838B939CC3
:1006B000A5AFB9C4D0DCE9F70000000200090F00C3
:1006C00000030401000C0000000000000000000016
:1006D0000000000000000000000000240027002AA5
:1006E000002D003000D5F08D14A1C881CFD9F1AF15
:1006F000200014021302120215020702080204016C
:100700000C01060100080B000202020100090400AE
:10071000000102020000052400100105240101016E
:100720000424020605240600010705810310004089
:1007300009040100020A000000070502024000004F
:1007400007058302400000040309044172647569CF
:100750006E6F204C4C430041726475626F790012D9
:100760000100020000004041233680000101020325
:100770000112010002EF0201404123368000010115
:100780000203010408020110408040102040804014
:1007900080080204018040201002011080102040D7
:1007A000402000000000250028002B002E00310012
:1007B0000404040404030405020202020403020206
:1007C00002020606060606060404020202040403E8
:1007D0000100BC1111241FBECFEFDAE0DEBFCDBF98
:1007E00025E0A6E4B1E001C01D92A03FB207E1F709
:1007F00011E0A0E0B1E0E0EDF4E202C005900D925E
:10080000A634B107D9F713E0CAEED3E004C02197AC
:10081000FE010E940312C93ED107C9F70E94960E3D
:100820000C9466120C940000CF92DF92EF92FF922C
:100830000F931F93CF93DF936C017A018B01C0E07C
:10084000D0E0CE15DF0589F0D8016D918D01D6017C
:10085000ED91FC910190F081E02DC6010995892B65
:1008600011F47E0102C02196ECCFC701DF91CF9138
:100870001F910F91FF90EF90DF90CF900895362F4A
:1008800090E0FC01E854F94F4491FC01ED57F84F1A
:100890002491FC01E055F84F8491882309F451C05C
:1008A0004423E1F150E0FA013197EF30F105B0F562
:1008B000EA5AFF4F0C940312909180009F7707C073
:1008C000909180009F7D03C090918000977F9093CE
:1008D000800024C094B59F7702C094B59F7D94BDDD
:1008E0001DC0909190009F7707C0909190009F7DD0
:1008F00003C090919000977F909390000FC09091CB
:10090000C0009F7703C09091C0009F7D9093C0006E
:1009100005C09091C200977F9093C200E82FF0E04D
:10092000EE0FFF1FEE55F84FA591B4918FB7F894D5
:10093000EC91311103C020952E2301C02E2B2C9356
:100940008FBF08953FB7F894809157019091580157
:10095000A0915901B0915A0126B5A89B05C02F3F1F
:1009600019F00196A11DB11D3FBFBA2FA92F982FD5
:100970008827820F911DA11DB11DBC01CD0142E050
:10098000660F771F881F991F4A95D1F708958FB179
:100990002CB193B130E02095309520743327A90114
:1009A00023E0559547952A95E1F7292F30E02095CA
:1009B0003095207133273595279535952795242B2C
:1009C0008095807F822B08952F923F924F925F9265
:1009D0006F927F928F929F92AF92BF92CF92DF924F
:1009E000EF92FF920F931F93CF93DF9300D000D02D
:1009F00000D0CDB7DEB76A3091F4FC01E85EFB4F62
:100A0000408132972081318158E0459F200D311D72
:100A1000112431832083329711821082E4C06D301B
:100A200009F4E1C0FC01E85EFB4FD08032976080A2
:100A300071801C017CEE271A7BEF370AD1012D91C2
:100A40003C910D2D10E0203831057CF0B6E0DB9EA6
:100A5000200D311D1124F10131832083FC01E75E5B
:100A6000FB4F4081411194C0BEC0F0E46F16710489
:100A70006CF7A90175E0D79E400D511D1124141685
:100A8000150624F7A80173E0440F551F7A95E1F786
:100A9000460D571D14161506CCF6E5E06E9FD001E5
:100AA0001124BA83A983490160E070E0442443948F
:100AB000512C6530710541F0E981FA81E60FF71F8D
:100AC000E851FF4FE49101C0E0E05301F8E04E2F00
:100AD0004170C42E9C828B824B8148194D1508F0C1
:100AE00048C0A501F42EB42FBA19BD15D8F5AB81B5
:100AF000BC81A038B10598F54034510580F5AF2D83
:100B0000A695A695A695EA2EF12CDA01A770BB272B
:100B1000BE83AD83D701B695BA2FAA27B795A795FF
:100B2000EB80FC80AE0DBF1DA80FB91F72010D80B8
:100B300002C0EE0CFF1C0A94E2F7FE82ED82CC208C
:100B400031F05496FC905497ED80EF2806C0ED806C
:100B5000E0945496FC905497EF205496EC924F5F9B
:100B60005F4FC0CF4B815C814F5F5F4F5C834B8396
:100B7000B3CFE695F150A00EB11EF111A8CF6F5F73
:100B80007F4F800E911E6630710509F092CF5ECFC7
:100B90006AEF6003A001619F500D112440585F4F20
:100BA0004217530704F5DC01ED91FC910190F081AF
:100BB000E02D6AE026960FB6F894DEBF0FBECDBFDB
:100BC000DF91CF911F910F91FF90EF90DF90CF9029
:100BD000BF90AF909F908F907F906F905F904F905D
:100BE0003F902F90099426960FB6F894DEBF0FBE63
:100BF000CDBFDF91CF911F910F91FF90EF90DF90CC
:100C0000CF90BF90AF909F908F907F906F905F90AC
:100C10004F903F902F9008950E9409121092520118
:100C200082E090E00E940E12882369F080916400B7
:100C3000877F8093640080916500877F8093650043
:100C400081E08093460108954091680150916901C7
:100C5000209166013091670142175307B4F49091D7
:100C6000E8009570E1F39091E80092FD19C080933F
:100C7000F100809168019091690101968F73992725
:100C8000892B19F48EEF8093E80080916801909190
:100C900069010196909369018093680181E008954C
:100CA00080E00895615030F02091F100FC01208334
:100CB0000196F8CF289884E680936D010895CF932C
:100CC000DF9390E0FC01ED57F84F2491FC01E055D3
:100CD000F84F8491882361F190E0880F991FFC01FF
:100CE000E952F94FC591D491FC01EE55F84FA59109
:100CF000B491611109C09FB7F8948881209582232F
:100D00008883EC912E230BC0623061F49FB7F89476
:100D10003881822F809583238883EC912E2B2C930E
:100D20009FBF06C08FB7F894E8812E2B28838FBF12
:100D3000DF91CF9108951F93CF93DF93182FEB018D
:100D400061E00E945F06209711F460E004C0CF3F8D
:100D5000D10539F461E0812FDF91CF911F910C947F
:100D60003F04E12FF0E0E854F94FE4914E2F50E0BA
:100D7000FA013197EF30F10508F06CC0EB59FF4FE5
:100D80000C94031284B5806884BDC7BD68C084B567
:100D9000806284BDC8BD63C08091800080688093FC
:100DA0008000D0938900C093880059C08091800052
:100DB000806280938000D0938B00C0938A004FC0E4
:100DC00080918000886080938000D0938D00C093D4
:100DD0008C0045C080919000806880939000D093F3
:100DE0009900C09398003BC08091900080628093EE
:100DF0009000D0939B00C0939A0031C080919000E6
:100E0000886080939000D0939D00C0939C0027C081
:100E10008091C00080688093C0008091C0008F7B6B
:100E20008093C000C093CF001AC08091C000806240
:100E30008093C000C093D00012C08091C20088602F
:100E40008093C2008091C2008B7F8093C200C093C8
:100E5000D20005C0C038D1050CF07CCF76CFDF9131
:100E6000CF911F9108958F929F92AF92BF92CF9290
:100E7000DF92EF92FF926B017C010E94A2044B0172
:100E80005C01C114D104E104F104F1F00E94A20458
:100E9000DC01CB0188199909AA09BB09883E934056
:100EA000A105B10570F321E0C21AD108E108F108EB
:100EB00088EE880E83E0981EA11CB11CC114D104D9
:100EC000E104F10419F7DDCFFF90EF90DF90CF90B0
:100ED000BF90AF909F908F9008951F920F920FB682
:100EE0000F9211242F933F938F939F93AF93BF93B0
:100EF0008091620190916301A0916401B0916501BC
:100F00003091560123E0230F2D3720F40196A11DC7
:100F1000B11D05C026E8230F0296A11DB11D209327
:100F200056018093620190936301A0936401B09392
:100F300065018091570190915801A0915901B0919C
:100F40005A010196A11DB11D80935701909358013C
:100F5000A0935901B0935A01BF91AF919F918F9186
:100F60003F912F910F900FBE0F901F901895CF9229
:100F7000DF92EF92FF920F931F93CF93E82FF0E051
:100F8000E153F84FC491E62FF0E0603330F4E857B6
:100F9000F94FE4910E2F10E006C0EE0FFF1FE85747
:100FA000FA4F059114916801E12CF12C60E074E294
:100FB00084EF90E0A70196010E941612BA01A901E0
:100FC00041505109610971094115510581E06807D6
:100FD000710580F060E970ED83E090E0A701960173
:100FE0000E941612BA01A901415051096109710903
:100FF00083E001C081E0C130C9F0C33031F5909188
:101000009100987F892B8093910050939900409391
:101010009800109355010093540181E0809353018F
:10102000809171008260809371000FC09091810067
:10103000987F892B8093810050938900409388008A
:1010400080916F00826080936F00CF911F910F910C
:10105000FF90EF90DF90CF9008951F920F920FB600
:101060000F9211242F933F938F939F93AF93BF932E
:10107000EF93FF9380914B01882309F44DC0809139
:10108000470190914801A0914901B0914A01892BF3
:101090008A2B8B2B51F180917201E0917301F091B9
:1010A0007401908189278083809147019091480144
:1010B000A0914901B0914A01181619061A061B069B
:1010C000A4F58091470190914801A0914901B09108
:1010D0004A010197A109B109809347019093480102
:1010E000A0934901B0934A0120C010924B01809116
:1010F0006F008D7F80936F0090917201E09173017A
:10110000F09174018081282F30E0892F90E0809544
:1011100090958223932308C080917201E09173011E
:10112000F0917401908189278083FF91EF91BF91A5
:10113000AF919F918F913F912F910F900FBE0F9084
:101140001F901895E82FF0E0E153F84FE491E1305B
:1011500019F0E33069F0089580916F008D7F8093DE
:101160006F0090917201E0917301F091740108C0D9
:101170001092530190916F01E0917001F091710113
:101180008081282F30E0892F90E0809590958223F0
:101190009323808308951F920F920FB60F9211240C
:1011A0002F933F934F935F936F937F938F939F936F
:1011B000AF93BF93EF93FF9380915301882349F03E
:1011C00080916F01E0917001F09171019081892708
:1011D000808380915201882309F493C080914E014D
:1011E00090914F01A0915001B0915101892B8A2B10
:1011F0008B2B09F486C080914E0190914F01A091F4
:101200005001B09151010197A109B10980934E019C
:1012100090934F01A0935001B0935101892B8A2BD9
:101220008B2B09F06EC0E0914C01F0914D01BF0194
:101230006F5F7F4F70934D0160934C014491942FE9
:10124000907F842F8F70903819F40E94A208EBCF02
:10125000903981F43296F0934D01E0934C01FB01FB
:101260006491909175018917F0F667FDDCCF0E94BB
:10127000B707D9CF903E29F410924D0110924C013E
:10128000D2CF903F19F4109252013BC097FDCBCFC3
:101290003296F0934D01E0934C01FB01249130E034
:1012A000342BA0915401B09155010E9457126C50FB
:1012B0007E4F8F4F9F4F28EE33E040E050E00E947A
:1012C000351220934E0130934F01409350015093BB
:1012D000510180914E0190914F01A0915001B09128
:1012E0005101892B8A2B8B2B61F481E090E0A0E0E7
:1012F000B0E080934E0190934F01A0935001B093C2
:101300005101FF91EF91BF91AF919F918F917F918B
:101310006F915F914F913F912F910F900FBE0F9062
:101320001F901895FC0180916E01811103C08FEF11
:101330009FEF08959FB7F89482E08093E900209191
:10134000F20030E01216130614F421E030E021150B
:10135000310559F0289884E680936D018091F10061
:1013600080838091F200882319F09FBFC9010895FE
:101370008BE68093E800F9CF8091960581110DC02E
:1013800082E08093920584E0809393051092950506
:101390001092940581E08093960582E995E0089586
:1013A000CF93DF931F92CDB7DEB76983DC01ED9158
:1013B000FC910280F381E02D41E050E0BE016F5FBF
:1013C0007F4F09950F90DF91CF91089583E080932F
:1013D000E9008091F200882319F08AE38093E80005
:1013E0000895CF93DF931F92CDB7DEB7FC018485BC
:1013F000958597FD05C02FEF3FEF358724870BC0FC
:10140000CE0101960E949209019719F4898190E01A
:1014100002C08FEF9FEF0F90DF91CF9108950F9350
:101420001F93CF93DF931F92CDB7DEB78C01FC01E2
:101430008485958597FF0EC0CE0101960E94920982
:10144000019719F4298130E002C02FEF3FEFF80136
:1014500035872487F801848595850F90DF91CF919A
:101460001F910F910895FC018485958597FD0BC010
:101470009FB7F89482E08093E9008091F2009FBFCB
:1014800090E0019608959FB7F89482E08093E90078
:101490008091F2009FBF90E008958F929F92AF924B
:1014A000BF92CF92DF92EF92FF920F931F93CF9351
:1014B000DF935C016B018A0180912101882309F48B
:1014C0005EC080916E01882309F459C080916C013F
:1014D00080FF05C08091E00082608093E000E80119
:1014E0008AEFF82E93E0E92E2FE3822E3AE3932E33
:1014F000209709F43DC08FB7F894E092E9009091ED
:10150000E80095FF06C09091F200282D291B922F2C
:1015100001C090E08FBF91110AC0FA94FF2079F1C9
:1015200061E070E080E090E00E943307E1CF292F76
:1015300030E0C217D3070CF49C2F8FB7F894E092D9
:10154000E9002091E80025FF11C0292F30E0C21BDF
:10155000D30BF601915020F041914093F100FACF66
:10156000C20ED31E9091E80095FF13C08FBFC0CF6D
:101570005D9884E6809391051016110644F081E091
:1015800090E0F5019383828380E090E005C0C8017C
:1015900003C09092E800EACFDF91CF911F910F91A5
:1015A000FF90EF90DF90CF90BF90AF909F908F9083
:1015B0000895CF92DF92EF92FF920F931F93CF93F4
:1015C000DF931F92CDB7DEB7182F062FE42E862F9C
:1015D000880F8E5F99830E94240683E00E94240670
:1015E000F12EC12E9981D92E8C2D8F19801798F448
:1015F000F601E7FE02C0849101C080810E942406AA
:10160000182F80E00E9424068123FFEFCF1ADF0A03
:101610008111EACF01C081E00F90DF91CF911F913E
:101620000F91FF90EF90DF90CF900895DF92EF92AF
:10163000FF920F931F93CF93DF93D82E8A017B01E4
:10164000E40EF51EEB01CE15DF0571F0D7FE03C0E9
:10165000FE01849101C088810E9424062196811197
:10166000F2CF8FEF9FEF01C0C801DF91CF911F91A3
:101670000F91FF90EF90DF9008950F931F93CF93FA
:10168000DF931F92CDB7DEB782E0898342E450E05A
:1016900065E077E080E80E94160B0E94BC09DC013F
:1016A00012960D911C9113970115110569F0D8013F
:1016B000ED91FC910280F381E02DBE016F5F7F4FC1
:1016C000C801099597FF07C089810F90DF91CF91DD
:1016D0001F910F910895F80100851185E5CFCF93F3
:1016E000DF9390917501923009F46EC0C82F292FB5
:1016F00030E0F901E153F84FD491F901E256FA4F85
:1017000080839F5F9093750161E00E945F06D130F6
:1017100019F0D33039F158C0109280001092810036
:101720008091810088608093810080918100816038
:10173000809381008C2F90E0FC01E055F84FE491FC
:10174000F0E0EE0FFF1FEE55F84F259134913093E6
:10175000740120937301FC01ED57F84F849180933D
:10176000720132C01092900010929100809191000D
:1017700088608093910080919100816080939100B6
:101780008C2F90E0FC01E055F84FE491F0E0EE0F73
:10179000FF1FEE55F84F259134913093710120933E
:1017A0007001FC01ED57F84F849180936F01809197
:1017B0007501882321F06CE380E00E94B70780E088
:1017C000DF91CF910C94A208DF91CF9108951F92E1
:1017D0000F920FB60F9211248F939F938091E10087
:1017E0009091E100937F9093E10083FF0FC01092EE
:1017F000E90091E09093EB001092EC0092E390935B
:10180000ED0010926E0198E09093F00082FF20C0EE
:1018100093E09093E9009091F200992319F09AE3F4
:101820009093E80090919105992339F0909191055A
:10183000915090939105992389F190916D0199238D
:1018400039F090916D01915090936D01992341F180
:1018500084FF10C08091E2008E7E81608093E20060
:101860008091E1008F7E8093E10080916C018E7EFB
:10187000806111C080FF16C08091E2008E7E806181
:101880008093E2008091E1008E7E8093E100809160
:101890006C018E7E816080936C0104C05D9ACDCF17
:1018A000289AD6CF9F918F910F900FBE0F901F90C7
:1018B00018951F920F920FB60F921124CF92DF92BC
:1018C000EF92FF920F931F932F933F934F935F934A
:1018D0006F937F938F939F93AF93BF93EF93FF93F8
:1018E000CF93DF93CDB7DEB76C97DEBFCDBF10923D
:1018F000E9008091E80083FFFAC168E0CE014596D7
:101900000E94520682EF8093E8008D8987FF05C010
:101910009091E80090FFFCCF03C09EEF9093E80009
:10192000982F907609F0C6C09E892F89188D911145
:101930000CC0803829F480916B018093F10002C0C3
:101940001092F1001092F10047C1422F50E0512B4C
:10195000913051F4811140C14130510509F03CC131
:1019600080916B018D7F0BC0933061F4811134C184
:101970004130510509F030C180916B018260809344
:101980006B012AC1953041F48091E80080FFFCCFC3
:1019900020682093E30020C1963009F05FC0EB8CF3
:1019A000FC8C1092E90010926901109268011230CB
:1019B00091F510926701109266010E943D0B99E02B
:1019C000BE016F5F7F4FDB01E92F1D92EA95E9F7BA
:1019D00099831A8391E09E8390EA98879AEF99877A
:1019E0002091680130916901275F3F4F3C832B8331
:1019F0008D831092E9001092690110926801F092B3
:101A00006701E092660149E050E080E00E94160B19
:101A10000E943D0BE1C0F0926701E09266010E94D6
:101A2000BC09DC011296ED90FC901397E114F104CF
:101A300009F4C0C0D701ED91FC910480F581E02D3F
:101A4000BE016B5E7F4FC7010995009719F00CF03E
:101A5000C3C0C6C0F701E084F184E8CF973009F431
:101A6000BFC0983021F481E08093F100B5C0993077
:101A700009F0B2C0837009F0B3C0E7E2F1E081E0A1
:101A800021E036E39081992361F08093E90020936F
:101A9000EB0091919093EC003093ED008F5F8730D5
:101AA00089F78EE78093EA001092EA008F8980938D
:101AB0006E0192C08B8D9C8D1092E900109269018D
:101AC000109268019093670180936601898D81115E
:101AD00056C08E899D89913A59F4813209F080C0AF
:101AE00047E050E06AE171E080E00E94160B74C0AC
:101AF000913209F075C0833289F4888D90E0982F77
:101B000088272F89822BA0E0B0E080931601909364
:101B10001701A0931801B09319015EC0803269F4D7
:101B20008091E80082FFFCCF67E08AE191E00E94AB
:101B300052068BEF8093E80006C0823209F04CC059
:101B40008F898093210180916A01882319F0EEEF3B
:101B5000FAE002C0E0E0F8E080911A0190911B01E8
:101B6000A0911C01B0911D01803B9440A105B105DD
:101B700009F088C08091210180FFA0C083C00E942D
:101B8000BC09DC0112960D911C91139701151105EA
:101B900039F1D801ED91FC910190F081E02DBE0169
:101BA0006B5E7F4FC8010995811116C0F801008551
:101BB0001185ECCF1130C1F0133091F48F89882357
:101BC00009F455C08230E9F440E867E087E597E022
:101BD0000E94D90A882321F08EEF8093E80087C005
:101BE00081E28093EB0083C08B8D9C8D089711F46C
:101BF0001093900580919005811136C06FE577E0D4
:101C000038C0813029F440E86BE08BE497E0E0CF06
:101C1000833031F70E94BC09DC011296ED90FC90F4
:101C200013978E010F5F1F4F6801E114F10479F0E3
:101C3000D701ED91FC910680F781E02DB801C70135
:101C40000995080F111DF701E084F184EECFD8014A
:101C50001C92F60101900020E9F73197BF016C1941
:101C60007D0940E0C601B4CF61E777E002C067E4D8
:101C700077E06115710509F4B3CFFB01449150E0A1
:101C800080E833CF0FB6F894A89580916000886102
:101C900080936000109260000FBEA895EE3F2AE08E
:101CA000F20739F08091FE0A9091FF0A91838083B8
:101CB00093CF1092FF0A1092FE0A8ECFEE3F8AE079
:101CC000F80731F0808191819093FF0A8093FE0A9A
:101CD00087E797E7918380839BE088E10FB6F894CC
:101CE000A895809360000FBE9093600075CF6C96AE
:101CF0000FB6F894DEBF0FBECDBFDF91CF91FF913D
:101D0000EF91BF91AF919F918F917F916F915F9173
:101D10004F913F912F911F910F91FF90EF90DF9086
:101D2000CF900F900FBE0F901F901895789484B5A8
:101D3000826084BD84B5816084BD85B5826085BDC7
:101D400085B5816085BD80916E00816080936E0055
:101D50001092810080918100826080938100809147
:101D600081008160809381008091800081608093F8
:101D70008000809191008260809391008091910019
:101D800081608093910080919000816080939000A9
:101D90008091C10084608093C1008091C100826005
:101DA0008093C1008091C10081608093C1008091C7
:101DB000C30081608093C3008091C00082608093E3
:101DC000C0008091C20081608093C20080917A003F
:101DD000846080937A0080917A00826080937A0098
:101DE00080917A00816080937A0080917A00806887
:101DF00080937A0010926E0110926B0110926C0128
:101E00008091D70081608093D70080EA8093D800CA
:101E100089B5806189BD89B5826089BD09B400FE3C
:101E2000FDCF61E070E080E090E00E943307809198
:101E3000D8008F7C80618093D8008091E000807F03
:101E40008093E0008091E1008E7E8093E1008DE040
:101E50008093E200559A209AEEEFFFE785919491E6
:101E60008B3F9C4D19F481E080936A01CFB7F894C1
:101E700080915B01811127C0E1ECF7E08491E4E9F6
:101E8000F7E09491E82FF0E0EE0FFF1FE952F94FD1
:101E9000A591B491EC91E92321F461E081E10E94E4
:101EA0003F0461E081E10E945F068CB580618CBDDA
:101EB0008CB580648CBD61E08FE00E945F0661E0BC
:101EC00080E10E945F0680915B018F5F80935B01E0
:101ED000CFBFC2EFD6E0FE01849122963196649185
:101EE000882319F00E945F06F6CF61E086E00E9429
:101EF0003F0461E070E080E090E00E94330760E022
:101F000086E00E943F046AE070E080E090E00E947A
:101F1000330761E086E00E943F04ECEBF7E0E491D8
:101F2000F0E0EE0FFF1FEE55F84F859194919093DE
:101F3000610180936001EFE8F7E0E491E0935F01D5
:101F4000E4EBF7E0E491F0E0EE0FFF1FEE55F84F01
:101F50008591949190935E0180935D01E7E8F7E0AD
:101F6000E491E0935C018CB58C7F8CBD8DB5816074
:101F70008DBDE0916001F0916101908180915F01E0
:101F8000982B9083A0915D01B0915E012C9190916E
:101F90005C01909592239C93908180958923808306
:101FA000E5EEF6E006E0E23FF00749F084918EBDF1
:101FB00000000DB407FEFDCF8EB53196F3CFE09152
:101FC0005D01F0915E01908180915C01892B80839D
:101FD000E0916001F0916101908180915F018095B5
:101FE0008923808380916400816080936400809164
:101FF00064008260809364008091640080688093B4
:102000006400809164008064809364008091650026
:102010008160809365000E94C70487FF1AC080E03A
:1020200094E01EBC00000DB407FEFDCF2EB5019755
:10203000C1F760E070E08AE00E949B0660E070E01B
:102040008BE00E949B0660E070E089E00E949B06A6
:10205000FFCF85E00E946F0B8DE00E946F0B0E9406
:102060000E060E940E068CE380937C0180E1809333
:102070007F015AE8652E51E0752E88248394912CB7
:10208000AA24A394B12C34E0232E312C42E0442E18
:10209000512C2FB7F8948091620190916301A09127
:1020A0006401B09165012FBF20918801222391F036
:1020B00020918001182F121B1093890120917D011E
:1020C00030917E012F5F3F4F30937E0120937D0141
:1020D00010928801409184015091850160918601A0
:1020E0007091870184179507A607B7077CF4481BF2
:1020F000423008F4FDC083B7817F83BF83B781601E
:1021000083BF889583B78E7F83BFF2C020917F0104
:10211000AC01BD01420F511D611D711D4093840131
:1021200050938501609386017093870180938001AD
:1021300090938101A0938201B093830181E0809309
:10214000880180E0B82FB111BFEFF3010024B193F3
:10215000B193B193B1930394D1F7C2E0D1E0FE0102
:1021600042815381440F551F80819181880F991FAF
:102170007C0122E0E20EF11CBA016E5F7F4F8E15EA
:102180009F05A9F19A0157FF29C020E030E026C041
:102190002A173B0754F580389105F0F4B22FB69515
:1021A000B695B6956C01A0E8BA9FC00CD11C11245D
:1021B000D601AA58BE4F690107E0C022DD24840180
:1021C00002C0000F111FCA94E2F768015496DC9018
:1021D0005497CD285496CC922F5F3F4FDB0161344A
:1021E0007105B4F2A0E4B0E0D3CF0196C8CF349625
:1021F00011E0E231F10709F0B3CF80917D019091B8
:102200007E016FE070E00E94EF11892B09F04DC054
:1022100080910001909101018130910551F420914C
:1022200012013091130180911401909115010197D1
:1022300028C08230910539F42091120130911301A8
:102240002F5F3F4F15C08430910551F4209112014A
:10225000309113018091140190911501019611C0E4
:10226000089759F42091120130911301215031093E
:10227000809114019091150104C080E090E020E06D
:1022800030E04C815D816E817F81499359936993E0
:10229000799341E0C631D407A1F73093130120931D
:1022A000120190931501809314010E94C70487FFC7
:1022B00027C080910001909101019C012A70332771
:1022C00028173907E9F4B0920101A092000180912A
:1022D0008A018EBDEBE8F1E081910DB407FEFDCFE0
:1022E0008EBD85E0EA38F807B9F70DB407FEFDCFDB
:1022F00080E090E0892B09F4CCCE0E940000C3CE90
:102300000E94C70486FF0FC08091000190910101D7
:102310009C01257033272817390729F450920101B1
:1023200040920001D4CF0E94C70484FF0FC0809167
:102330000001909101019C012A7033272817390769
:1023400029F43092010120920001C1CF0E94C704FC
:1023500085FFBDCF80910001909101019C01257006
:1023600033272817390709F0B2CFE8E0F0E0F093FF
:102370000101E0930001ABCFE0EAF5E013821282A5
:1023800088EE93E0A0E0B0E084839583A683B783D2
:1023900081E391E0918380838FEF9FEF958784871E
:1023A000E6E7F1E01382128281E491E09183808379
:1023B0008CE3868380E181871086178216861786D4
:1023C000108A118A128A10928B0510928A05109237
:1023D0008D0510928C0581E080938E050895AA1BCF
:1023E000BB1B51E107C0AA1FBB1FA617B70710F000
:1023F000A61BB70B881F991F5A95A9F78095909532
:10240000BC01CD010895EE0FFF1F0590F491E02D62
:10241000099481E090E0F8940C946612F999FECF4B
:1024200092BD81BDF89A992780B50895052E97FB36
:102430001EF400940E942D1257FD07D00E94351201
:1024400007FC03D04EF40C942D1250954095309516
:1024500021953F4F4F4F5F4F089590958095709510
:1024600061957F4F8F4F9F4F0895A1E21A2EAA1BAF
:10247000BB1BFD010DC0AA1FBB1FEE1FFF1FA21734
:10248000B307E407F50720F0A21BB30BE40BF50B31
:10249000661F771F881F991F1A9469F760957095BA
:1024A000809590959B01AC01BD01CF010895A29F3D
:1024B000B001B39FC001A39F700D811D1124911D18
:1024C000B29F700D811D1124911D0895F894FFCFC6
:1024D00002000000000001000000020000000300F4
:1024E000000004000000FFFFFFFF00E1000000000B
:1024F00000000100000000C1808100000000000019
:1025000000D0094D0A330AF1090F0AE6090000005C
:0625100000E404140400C5
:00000001FF
